:10000000E5C5000014C6000012C6000010C60000BE
:100010000EC600000CC600000AC6000008C600009C
:1000200006C6000004C6000002C6000000C60000AC
:10003000FEC500000C94FF17FAC50000F8C50000CB
:10004000F6C50000F4C50000F2C50000F0C50000D0
:10005000EEC50000ECC50000EAC500000C94B51721
:10006000E6C500000C9489180C945F18E0C50000E8
:10007000DEC50000DCC50000DAC50000D8C5000000
:10008000D6C50000D4C50000D2C50000D0C5000010
:10009000CEC50000CCC50000CAC500000C94BF1836
:1000A000C6C50000C4C50000C2C50000C0C5000030
:1000B000BEC50000BCC50000BAC50000B8C5000040
:1000C000B6C50000B4C50000B2C50000B0C5000050
:1000D000AEC50000ACC50000AAC50000A8C5000060
:1000E000A6C50000000103070F1F3F7F0080C0E08E
:1000F000F0F8FCFE00000000003E5B4F5B3E3E6BF4
:100100004F6B3E1C3E7C3E1C183C7E3C181C577DB1
:10011000571C1C5E7F5E1C00183C1800FFE7C3E7FD
:10012000FF0018241800FFE7DBE7FF30483A060E0F
:100130002629792926407F050507407F05253F5A56
:100140003CE73C5A7F3E1C1C08081C1C3E7F1422C6
:100150007F22145F5F005F5F06097F017F00668971
:10016000956A606060606094A2FFA29408047E04B7
:100170000810207E201008082A1C08081C2A0808DD
:100180001E101010100C1E0C1E0C30383E3830069D
:100190000E3E0E06000000000000005F0000000799
:1001A000000700147F147F14242A7F2A12231308C7
:1001B000646236495620500008070300001C2241A3
:1001C000000041221C002A1C7F1C2A08083E080847
:1001D00000807030000808080808000060600020F7
:1001E000100804023E5149453E00427F40007249DA
:1001F0004949462141494D331814127F102745457E
:1002000045393C4A49493141211109073649494993
:1002100036464949291E0000140000004034000001
:10022000000814224114141414140041221408026A
:10023000015909063E415D594E7C1211127C7F49DD
:100240004949363E414141227F4141413E7F494932
:1002500049417F090909013E414151737F0808085E
:100260007F00417F41002040413F017F081422412F
:100270007F404040407F021C027F7F0408107F3E89
:100280004141413E7F090909063E4151215E7F09F6
:10029000192946264949493203017F01033F40405D
:1002A000403F1F2040201F3F4038403F6314081448
:1002B0006303047804036159494D43007F41414180
:1002C0000204081020004141417F04020102044061
:1002D00040404040000307080020545478407F28E5
:1002E0004444383844444428384444287F385454DB
:1002F000541800087E090218A4A49C787F080404FE
:100300007800447D40002040403D007F102844009C
:1003100000417F40007C047804787C08040478382D
:1003200044444438FC1824241818242418FC7C085D
:10033000040408485454542404043F44243C4040DA
:10034000207C1C2040201C3C4030403C442810288D
:10035000444C9090907C4464544C440008364100D6
:100360000000770000004136080002010204023C50
:100370002623263C1EA1A161123A4040207A38541F
:100380005455592155557941225454784221555498
:10039000784020545579400C1E52721239555555EB
:1003A00059395454545939555454580000457C41D6
:1003B0000002457D420001457C407D1211127DF016
:1003C000282528F07C545545002054547C547C0A40
:1003D000097F4932494949323A4444443A324A4809
:1003E00048303A4141217A3A42402078009DA0A00D
:1003F0007D3D4242423D3D4040403D3C24FF24245F
:10040000487E4943662B2FFC2F2BFF0929F620C07D
:10041000887E090320545479410000447D413048CE
:10042000484A32384040227A007A0A0A727D0D1911
:10043000317D2629292F28262929292630484D4073
:1004400020380808080808080808382F10C8ACBA6F
:100450002F102834FA00007B000008142A142222EE
:10046000142A14085500550055AA55AA55AAFF5537
:10047000FF55FF000000FF00101010FF00141414BF
:10048000FF001010FF00FF1010F010F0141414FC07
:10049000001414F700FF0000FF00FF1414F404FC24
:1004A000141417101F10101F101F1414141F001005
:1004B0001010F0000000001F101010101F1010107E
:1004C00010F010000000FF1010101010101010108D
:1004D000FF10000000FF140000FF00FF00001F10CD
:1004E000170000FC04F414141710171414F404F487
:1004F0000000FF00F714141414141414F700F71478
:100500001414171410101F101F141414F4141010C6
:10051000F010F000001F101F0000001F140000006A
:10052000FC140000F010F01010FF10FF141414FF62
:10053000141010101F00000000F010FFFFFFFFFF5D
:10054000F0F0F0F0F0FFFFFF0000000000FFFF0FF1
:100550000F0F0F0F3844443844FC4A4A4A347E0295
:10056000020606027E027E02635549416338444416
:100570003C04407E201E2006027E020299A5E7A5CB
:10058000991C2A492A1C4C7201724C304A4D4D303C
:100590003048784830BC625A463D3E494949007E61
:1005A0000101017E2A2A2A2A2A44445F44444051F8
:1005B0004A444040444A51400000FF0103E080FFAC
:1005C000000008086B6B083612362436060F090F38
:1005D00006000018180000001010003040FF010154
:1005E000001F01011E00191D1712003C3C3C3C007D
:1005F00000000000DB40A4A62EAF2000A1C8D3005D
:10060000408DAED580A80000600000000000000012
:1006100000000000000000E00000000000000000FA
:10062000000000000001E0000000000000000000E9
:100630000000000001F000000000000000000000C9
:1006400000000003F00000000000000000000000B7
:10065000000007F0000000000000000000000000A3
:100660000007F8000000000000000000000000008B
:100670000FF800000003C0007E000001E0007F0FC3
:10068000F800000003C000FE000001E000FFEFF8EA
:1006900000000003C000FE000001E000FFFFF800C2
:1006A000000003C000F00000000F007FFE7FC000CC
:1006B0000003C000F00000000F003FFE7FF83FF194
:1006C000FBCFFCFEF3BC3DEFE01FFE7FFF7FFBFF97
:1006D000DFFEFEFFBC3DEFE01FC6FFFF7FFBFFDF3D
:1006E000FEFEFFBC3DEFE00FE3C7FE787BC3DE1EDE
:1006F000F0FFBC3DEF0007FF87FC787BC3DE1EF0F8
:10070000F83C3DEF0001FFFFF0007BC3C01EF0F09E
:100710003C3DEF0001F37FE03FFBC3CFFEF0F03C38
:100720003DEF0003E33F807FFBC3DFFEF0F03C3D85
:10073000EF0007E73C00787BC3DE1EF0F03C3DEFA6
:100740000007FFBE00787BC3DE1EF0F03C3DEF00EB
:1007500007FFFE00787BC3DE1EF0F03C3DEF000F8C
:10076000FFFE007FFBFFDFFEF0F03FFDEFE00FFF3D
:10077000FF007FFBFFDFFEF0F03FFDEFE00FF9FF32
:10078000003E79F9CF9EF0F01F3DE7E01FF1FF003A
:1007900000000000000000000000001F80FF007F3C
:1007A000FFFFFFFFFFFFFFFFFFE01C007F007FFF59
:1007B000FFFFFEB46D888D18E000001F007FFFFF73
:1007C000FFFE95AD7DB577E000000F007FFFFFFFD6
:1007D000FEA5AD9D8D19E0000006007FFFFFFFFE26
:1007E000B5ADEDB57EE00000000000018000000026
:1007F0000000000000000380000000000000000076
:100800000007C000000000000000000007C000005A
:10081000000000000000000FC00000000000000009
:1008200000001FE00000000000000000001FE000CA
:1008300000000000000000003FE000000000000099
:100840000000003FF00000000000000000007FF00A
:10085000000000000000001FF87FF0000000000012
:1008600000003FFE7FF0000000000000003FFF7F1F
:10087000F0000000000000001FFFFBE0000000008F
:100880000000000FFFF9FFC00000000000000FFF94
:10089000F9FFF800000000000007FFF1FFFF000073
:1008A0000000000003FC73FFFF8000000000000157
:1008B000FE3FFFFF80000000000000FF1E0FFF0052
:1008C0000000000000007FFE1FFC00000000000090
:1008D000003FFFFFF8000000000000000FDFFFE016
:1008E000000000000000001F19FFC0000000000011
:1008F00000003F3CFF00000000000000007E7CF88C
:1009000000000000000000007FFE7C0000000000EE
:10091000000000FFFFFC0000000000000000FFFFDF
:10092000FE0000000000000000FFFFFE00000000CD
:1009300000000001FFEFFE0000000000000001FFCA
:10094000CFFE0000000000000003FF07FE000000D3
:100950000000000003FC07FE000000000000000390
:10096000F003FE00000000000000018000FE000017
:1009700000000000000000007E00000000000000F9
:100980000000003E000000000000000000000C001D
:100990000000000000078000FC000003C000000011
:1009A000078001FC000003C0000000078001FC007C
:1009B0000003C0000000078001E00000001E0000EE
:1009C00000078001E00000001E007FE3F79FF9FDB3
:1009D000E7787BDFC0FFF7FFBFFDFDFF787BDFC05F
:1009E000FFF7FFBFFDFDFF787BDFC0F0F787BC3D61
:1009F000E1FF787BDE00F0F787BC3DE1F0787BDE3D
:100A00000000F787803DE1E0787BDE007FF7879F7D
:100A1000FDE1E0787BDE00FFF787BFFDE1E0787B5A
:100A2000DE00F0F787BC3DE1E0787BDE00F0F78781
:100A3000BC3DE1E0787BDE00F0F787BC3DE1E0788B
:100A40007BDE00FFF7FFBFFDE1E07FFBDFC0FFF7CC
:100A5000FFBFFDE1E07FFBDFC07CF3F39F3DE1E002
:100A60003E7BCFC00000000000000000000000FF3F
:100A7000FFFFFFFFFFFFFFFFFFC0FFFFFFFFFD685E
:100A8000DB111A31C0FFFFFFFFFD2B5AFB6AEFC0DD
:100A9000FFFFFFFFFD4B5B3B1A33C0FFFFFFFFFD76
:100AA0006B5BDB6AFDC05353443133303620616CDD
:100AB0006C6F636174696F6E206661696C65640058
:100AC0000200002100240027002A002D00300033FE
:100AD0000001010000040107010A010000220025B5
:100AE0000028002B002E0031003400020100000518
:100AF0000108010B0105050505070508080808029E
:100B00000202020A0A0808040404040101010101A6
:100B10000101010303030303030303040707070C95
:100B20000C0C0C0C0C0C0C0202020206060606064B
:100B30000606060B0B0B0B0B0B0B0B0102102020F8
:100B40000808102040102040800201020108040221
:100B50000101020408102040808040201008040297
:100B600001800402018040201008040201080402F0
:100B700001010204081020408001020408102040F6
:100B80008000000A0B02090C0D0E08070304010087
:100B90000000000000000000000000000000000055
:100BA0000000000000000000000000000012111012
:100BB0000000000000000000000000000000000035
:100BC0000000000000000000E2197F2411241FBE75
:100BD000CFEFD1E2DEBFCDBF00E00CBF12E0A0E05E
:100BE000B2E0E8E1F0E500E00BBF02C007900D9233
:100BF000A03DB107D9F725E0A0EDB2E001C01D92FC
:100C0000A834B207E1F715E0C5EED5E000E006C074
:100C100021970109802FFE010E94D725C43ED107EC
:100C200080E00807A9F70E945B1C0C94FB27E8C929
:100C30000895282F30E0F901EF57F44F9491F9010E
:100C4000E55CF44F44912B50354FF9012491222358
:100C500009F435C0992311F191509231F8F4E92F3C
:100C6000F0E08827E95CF94F8F4F0C94D725680690
:100C70006C064906600664064E066F067506790620
:100C80007F06830687068D0691064E0695069B060F
:100C90009F06809180008F7780938000E22FF0E0A4
:100CA000EE0FFF1FE552F54FA591B4918FB7F89461
:100CB000EC91611148C040954E234C938FBF08952D
:100CC000809180008F7DE8CF80918000877FE4CF86
:100CD00084B58F7784BDE2CF84B58F7DFBCF8091C3
:100CE000B0008F778093B000D9CF8091B0008F7D16
:100CF000F9CF809190008F7780939000CFCF809133
:100D000090008F7DF9CF80919000877FF5CF809103
:100D1000A0008F778093A000C1CF8091A0008F7D2D
:100D2000F9CF8091A000877FF5CF809120018F7748
:100D300080932001B3CF809120018F7DF9CF8091E6
:100D40002001877FF5CF4E2BB8CFCF93DF9390E074
:100D5000FC01E55CF44F24918B50954FFC0184918C
:100D60008823D1F090E0880F991FFC01EF53F54FD5
:100D7000A591B491FC01E552F54FC591D491611153
:100D80000EC09FB7F8948C91E22FE0958E238C9340
:100D90002881E223E8839FBFDF91CF9108958FB729
:100DA000F894EC91E22BEC938FBFF6CF3FB7F89419
:100DB0008091AE039091AF03A091B003B091B103C5
:100DC00026B5A89B05C02F3F19F00196A11DB11DA6
:100DD0003FBFBA2FA92F982F8827BC01CD01620FE2
:100DE000711D811D911D42E0660F771F881F991F9D
:100DF0004A95D1F708958F929F92AF92BF92CF926A
:100E0000DF92EF92FF924B015C01D0DF6B017C011E
:100E1000CDDF6C197D098E099F09683E73408105FD
:100E20009105B0F321E0821A9108A108B10888EE7B
:100E3000C80E83E0D81EE11CF11C81149104A104AA
:100E4000B10431F7FF90EF90DF90CF90BF90AF905B
:100E50009F908F9008952FB7F8946091AA03709196
:100E6000AB038091AC039091AD032FBF089508951B
:100E700008959091000289130DC0E0ECFAE0E4912E
:100E80009FEF90930002E230D9F030F4EE2379F036
:100E9000E13081F060E0CDCEE43049F110F1E53091
:100EA000C9F7909173009D7F90937300F3CF1092D8
:100EB0006E00F0CF90916F009D7F90936F00EACF0E
:100EC000909170009D7F9093700091E09093B0009E
:100ED0009091B100987F94609093B1001092B3000C
:100EE000D9CF909171009D7F90937100D3CF909155
:100EF00072009D7F90937200CDCFAF92BF92CF9240
:100F0000DF92EF92FF920F931F93CF93DF936C01C9
:100F10007B018B01040F151FEB015E01AE18BF08AA
:100F2000C017D10759F06991D601ED91FC9101905C
:100F3000F081E02DC6011995892B79F7C501DF9164
:100F4000CF911F910F91FF90EF90DF90CF90BF90C6
:100F5000AF900895FC01448155816081718186EBD9
:100F600093E0CBCFFC01538D448D252F30E0842FAF
:100F700090E0821B930B541710F0CF9608950197C1
:100F80000895FC01918D828D981761F0A28DAE0FAE
:100F9000BF2FB11D5D968C91928D9F5F9F73928F35
:100FA00090E008958FEF9FEF0895FC01918D828D61
:100FB000981731F0828DE80FF11D858D90E008952E
:100FC0008FEF9FEF0895FC01918D228D892F90E086
:100FD000805C9F4F821B91098F739927089586EB40
:100FE00093E0F1DF21E0892B09F420E0822F0895BE
:100FF000FC01A48DA80FB92FB11DA35ABF4F2C918E
:10100000848D90E001968F739927848FA689B78984
:101010002C93A089B1898C91837080648C93938D7B
:10102000848D981306C00288F389E02D80818F7D1E
:1010300080830895EF92FF920F931F93CF93DF93D6
:10104000EC0181E0888F9B8D8C8D98131AC0E88904
:10105000F989808185FF15C09FB7F894EE89FF89D3
:101060006083E889F98980818370806480839FBF71
:1010700081E090E0DF91CF911F910F91FF90EF9071
:101080000895F62E0B8D10E00F5F1F4F0F73112781
:10109000E02E8C8D8E110BC00FB607FCFACFE889BD
:1010A000F989808185FFF5CFCE01A2DFF2CFEB8DEC
:1010B000EC0FFD2FF11DE35AFF4FF0829FB7F8941C
:1010C0000B8FEA89FB8980818062D0CFCF93DF9339
:1010D000EC01888D8823B1F0AA89BB89E889F98958
:1010E0008C9185FD03C0808186FD0CC00FB607FC86
:1010F000F7CF8C9185FFF2CF808185FFEDCFCE01B8
:1011000077DFEACFDF91CF91089580E090E0892BDF
:1011100021F065DF81110E94000080E090E0892BC2
:1011200049F080E090E0892B29F00E9400008111B5
:101130000E94000080E090E0892B49F080E090E080
:10114000892B29F00E94000081110E94000080E09C
:1011500090E0892B49F080E090E0892B29F00E94F3
:10116000000081110C94000008950895FC01637043
:10117000668B8481958126813781613039F06330B7
:1011800029F09187808733872287089531872087C8
:101190009387828708952F923F924F925F926F922A
:1011A0007F928F929F92AF92BF92CF92DF92EF92F7
:1011B000FF920F931F93CF93DF93CDB7DEB76A975C
:1011C0000FB6F894DEBF0FBECDBF9A8F898F7A839A
:1011D00069834A01D22E18870F833701BC2CDC01AA
:1011E00059962D913C915A972115310509F015C159
:1011F00018968D919C911997681779070CF0D7C1B3
:101200001A968D919C91481759070CF0D0C14C2C1F
:10121000512CB6E0CB9E600D711D11247C876B872D
:10122000161617060CF0C3C1EA2DF0E0FA87E9871D
:1012300093E0EE0FFF1F9A95E1F7F88BEF87CF0150
:10124000840F951F181619060CF0B1C1A98DBA8D1F
:1012500058968C91811104C0BFEABD1508F4D3944F
:10126000A98DBA8DED91FC9111970284F385E02D43
:10127000CD011995B5E0DB9EC0011124E981FA8109
:10128000FC83EB83312C212C9C012C503F4F388F59
:101290002F8B4A2D50E05E8B4D8BEF89F88DE20D40
:1012A000F31D44919E828D82D12CC12C69817A815B
:1012B000620D731D7A8B698B842F90E09C8B8B8BD6
:1012C000E98DFA8DA081B18140FF82C0F1E0BF12AB
:1012D0006FC0AF126DC01C96ED91FC912F813885C7
:1012E000A4014C0D5D1D69897A89898D9A8D1995A6
:1012F000EB89FC89F595E7954E2F5FEFC51AD50A66
:101300006D817E818D899E89680F791F7E836D83B3
:1013100098E0C916D10481F6AFEF2A1A3A0AEB8198
:10132000FC81E40DF51DFC83EB83F5E02F16310401
:1013300009F0B3CF2F81388526153705B9F0A98D6F
:10134000BA8DED91FC91B1E0BB1257C0AB1255C004
:1013500069817A816B5F7F4F0088F189E02D83017D
:1013600028E030E0A401898D9A8D1995A98DBA8D58
:10137000ED91FC9111970688F789E02DCD016A96D1
:101380000FB6F894DEBF0FBECDBFDF91CF911F9196
:101390000F91FF90EF90DF90CF90BF90AF909F9014
:1013A0008F907F906F905F904F903F902F90199407
:1013B0001E96ED91FC91EF80F88409851A859201C3
:1013C0004D815E816B817C81898D9A8D199590CF3D
:1013D0002F8138852615370509F48ACF31E0B312FD
:1013E00007C0A31205C01C96ED91FC91930178CF24
:1013F0001E96ED91FC917301E0CF6B857C8564199D
:1014000075090684F785E02D73010F85188992010F
:10141000A401898D9A8D1995A9CFF90134969491DB
:10142000329745915491D91AB7E0DB9E400D511D7A
:101430001124F901259134913C8B2B8BFA012590D5
:101440003490FA013296749031963491398B3296F9
:1014500064903196449041E04C1518F04A1508F01C
:101460007FC0662D062C000C770B7C836B83842D4C
:10147000042C000C990B9E838D83A98DBA8DED9160
:10148000FC9111970284F385E02DCD011995512C23
:10149000D12CC12CEA2DF0E0FA87E9872B2D30E022
:1014A0003C872B87A401440D511D47FC5A95588F4A
:1014B0004F8B69817A81660D711D67FC7A957E87F5
:1014C0006D877989C71608F051CF2C2D30E04D81FA
:1014D0005E81420F531FA985BA854A9FC0014B9F69
:1014E000900D5A9F900D1124FC01E80DF91DF88B09
:1014F000EF87852D612C4F89588D420F531F5E8BCE
:101500004D8B671408F050C044244394480E8770F4
:1015100041F4C1010196EB89FC89E20DF31DD490E1
:101520001C01D7FE19C0A98DBA8DED91FC91662DD5
:1015300070E0B1E0BB1219C0AB1217C02D853E851B
:10154000620F731F0484F585E02D2F8138854D8946
:101550005E89898D9A8D1995DD0C6394842DD1CF88
:101560001E821D821C821B8288CF4B815C81640F8E
:10157000751FAB85BC856A9FC0016B9F900D7A9FDC
:10158000900D112469817A81680F791F0684F7858F
:10159000E02DEF80F88409851A859D014F855889D3
:1015A000898D9A8D1995D8CF570CC3948ACF6A9696
:1015B0000FB6F894DEBF0FBECDBFDF91CF911F9164
:1015C0000F91FF90EF90DF90CF90BF90AF909F90E2
:1015D0008F907F906F905F904F903F902F900895E5
:1015E0008F929F92AF92CF92EF92FF920F931F93A1
:1015F000CF93DF93EC01262F898D9A8D009709F008
:1016000050C06A30D1F41D861C868D8948E0849FC5
:10161000900111248E859F85820F931F9F878E874F
:1016200081E090E0DF91CF911F910F91FF90EF90BB
:10163000CF90AF909F908F9008956D3089F3CC88B4
:10164000AD888F898823C1F08C859D8536E0C39E47
:10165000800D911D1124488559854817590764F458
:101660004E855F851D861C8638E0A39EC00111242F
:10167000840F951F9F878E87EA88FB8808891989C0
:101680004E855F856C857D85CE0185DD2C898C85B9
:101690009D8546E0249F800D911D11249D878C8798
:1016A000BFCF6A3069F41D861C86FC013896E49130
:1016B0002D898E859F85E29F800D911D1124AECFCF
:1016C0006D3009F4ADCFFC0134963491631708F402
:1016D000A7CF3296E491E61708F4A2CFFC01329628
:1016E00085909490462F431B342F47E0349F800C05
:1016F000911C1124F401329634913196E4913323F4
:10170000A1F1EE2391F1CC88F4013596E491AD88F6
:101710004F89442301F10E2E000CFF0BE30FF11D46
:10172000CE9EA001CF9E500D11246C857D85460F65
:10173000571F68857985641775076CF44E855F853A
:101740001D861C86FC013896E491AE9E400D511D0D
:1017500011245F874E87EA88FB88088919894E859E
:101760005F856C857D85CE0116DDF4013496E491AC
:101770002C898C859D85E29F800D911D11248ECF33
:101780006F927F928F929F92AF92BF92CF92DF9291
:10179000EF92FF920F931F93CF93DF93EC016B01B6
:1017A0005A0139014801E881F9810284F385E02D6D
:1017B0001995E881F9810288F389E02D8701930169
:1017C000A501B601CE011995A501480D591D41503D
:1017D0005109E881F9810288F389E02D9301B6016E
:1017E000CE011995E881F9810088F189E02D9401F5
:1017F000A501B601CE011995C60CD71CB6016150E2
:101800007109E881F9810088F189E02D9401A50131
:10181000CE011995E881F9810688F789E02DCE017E
:10182000DF91CF911F910F91FF90EF90DF90CF90BC
:10183000BF90AF909F908F907F906F9019946F9210
:101840007F928F929F92AF92BF92CF92DF92EF9250
:10185000FF920F931F93CF93DF935C01EB016A011B
:10186000490138018701DC01ED91FC916217730792
:1018700019F5641675062CF0962D872D3A01C92EA0
:10188000D82E9601261937092F5F3F4F048CF58D0E
:10189000E02DA301BE01C5011995DF91CF911F91E4
:1018A0000F91FF90EF90DF90CF90BF90AF909F90FF
:1018B0008F907F906F9008954615570591F42617E5
:1018C000370724F0892D4B01C22FD82F9E012819EC
:1018D00039092F5F3F4F068CF78DE02DA601B4012B
:1018E000DACF0284F385E02D1995D501ED91FC91B5
:1018F0000488F589E02D83019401A601BE01C5018C
:101900001995D501ED91FC910688F789E02DC50167
:10191000DF91CF911F910F91FF90EF90DF90CF90CB
:10192000BF90AF909F908F907F906F901994EF929F
:10193000FF920F931F93DC011A960D911C911B9738
:1019400018962D913C911997ED91FC9100A0F1A171
:10195000E02D7B0150E040E070E060E019951F91C0
:101960000F91FF90EF9008954F925F926F927F9248
:101970008F929F92AF92BF92CF92DF92EF92FF929F
:101980000F931F93CF93DF936C012B015A01390101
:101990004801DC01ED91FC910284F385E02D19955D
:1019A000E201640C751CD601ED91FC91C615D705BA
:1019B0005CF40088F189E02D87019401A501BE0146
:1019C000C60119952196EFCF0688F789E02DC6014B
:1019D000DF91CF911F910F91FF90EF90DF90CF900B
:1019E000BF90AF909F908F907F906F905F904F903F
:1019F00019948F929F92AF92BF92CF92DF92EF9203
:101A0000FF920F931F93CF93DF93EC015B014A0189
:101A10006901E881F9810284F385E02D199595012A
:101A20002C0D3D1D21503109E881F9810488F5898B
:101A3000E02D78018401A401B501CE011995E8815A
:101A4000F9810688F789E02DCE01DF91CF911F91B2
:101A50000F91FF90EF90DF90CF90BF90AF909F904D
:101A60008F9019948F929F92AF92BF92CF92DF92F4
:101A7000EF92FF920F931F93CF93DF93EC015B01E3
:101A80004A0169017801E881F9810284F385E02D3A
:101A90001995C80CD91C860101501109E881F981FA
:101AA0000488F589E02D9501A401B501CE011995B1
:101AB000E881F9810688F789E02DCE01DF91CF9189
:101AC0001F910F91FF90EF90DF90CF90BF90AF905C
:101AD0009F908F901994EF92FF920F931F93DC01C8
:101AE000ED91FC9100A0F1A1E02D19951F910F91AE
:101AF000FF90EF9008950F931F93DC01ED91FC91FF
:101B0000068CF78DE02D19951F910F9108950F9375
:101B10001F93DC01ED91FC91048CF58DE02D19955E
:101B20001F910F910895DC01ED91FC910084F185E6
:101B3000E02D19943F924F925F926F927F928F9215
:101B40009F92AF92BF92CF92DF92EF92FF920F934C
:101B50001F93CF93DF935C017B014A016901390137
:101B600087E0680E711C93E0759467949A95E1F78D
:101B70002B01400E511E10E000E0312CD0E0C0E0FF
:101B8000CE0187709927330C892B59F4FE0183E02D
:101B9000F595E7958A95E1F7E00FF11FE80DF91D3E
:101BA000349037FE09C021E030E0A701B5016C0F89
:101BB0007D1F84E095E0B7DF2196CC16DD0601F7A6
:101BC0008FEFE81AF80A060D171DE414F504B1F6B4
:101BD000DF91CF911F910F91FF90EF90DF90CF9009
:101BE000BF90AF909F908F907F906F905F904F903D
:101BF0003F9008952F923F924F925F926F927F9203
:101C00008F929F92AF92BF92CF92DF92EF92FF920C
:101C10000F931F93CF93DF9300D000D0CDB7DEB7E3
:101C20003C016A013E832D83FC82EB825801A41A99
:101C3000B50AB7FE03C0B194A194B1088D809E800F
:101C4000861A970A97FE03C09194819491088A148A
:101C50009B045CF0902F812F0D811E819D838E83CC
:101C60009C2D8D2D6B01692F782F0C151D055CF0B7
:101C70009D818E817E836D83692F782F902F812F98
:101C80008601C92ED82E1601201A310A2B012D816A
:101C90003E81421A530A57FE03C0519441945108A1
:101CA000710137FE03C03FEFE31AF30AF594E7949E
:101CB0008D819E81861797075CF5A1E0B0E0BA831D
:101CC000A983C016D1064CF1D301ED91FC91048497
:101CD000F585E02D2B813C81A8016D817E818A14E0
:101CE0009B041CF04D815E81B801C3011995E41875
:101CF000F508F7FE0AC02D813E8189819A81280F5F
:101D0000391F3E832D83E20CF31C0F5F1F4FD9CF89
:101D10002FEF3FEF3A832983D4CF26960FB6F8945E
:101D2000DEBF0FBECDBFDF91CF911F910F91FF900E
:101D3000EF90DF90CF90BF90AF909F908F907F906B
:101D40006F905F904F903F902F900895EF92FF9289
:101D50000F931F93CF93DF93EC01EC80FD806E1502
:101D60007F050CF070C057FF04C0240F351F50E0F2
:101D700040E08E819F81FA01E20FF31F8E179F07CB
:101D80001CF49C01241B350B121613060CF05BC0CF
:101D9000922F842F8695869586958E9DD0018F9D56
:101DA000B00D11246A0F7B1FAF8DB8A1A60FB71F0E
:101DB000477049F188E0841B482F682F70E0FB01D1
:101DC000E451FF4FE491281708F063C0621B7109CA
:101DD0002FEF30E002C0359527956A95E2F7E223B0
:101DE0000130110539F0B0F10230110561F58C9127
:101DF000E82702C08C91E82BEC93941720F12C81FA
:101E00003D81A20FB31FE92FE41BE83078F00230C8
:101E1000110521F58E2F9C9190959C932C813D81ED
:101E2000A20FB31F88508830B0F7E770EE2359F047
:101E3000F0E0EC51FF4FE49101301105F9F010F1A1
:101E40000230110519F1DF91CF911F910F91FF9091
:101E5000EF900895E0958C91E823CECF81E00115B5
:101E6000110509F480E081959E2F8C932C813D8192
:101E7000A20FB31F98509830C0F7D7CF8C91E82BA2
:101E8000EC93E1CFE0958C91E823FACF8C91E82791
:101E9000F7CF0130110509F4ADCFE0F202301105A2
:101EA00009F4A5CFAE0DBF1DAECF0F931F93CF93F7
:101EB000DF9377FF04C0260F371F70E060E0DC017E
:101EC0001496CD91DC91FB01E20FF31FCE17DF07D3
:101ED0001CF49E01261B370B121613064CF5FA0153
:101EE00057FD3796A3E0F595E795AA95E1F7EC9FA6
:101EF000D001ED9FB00DFC9FB00D11246A0F7B1F28
:101F0000DC015F96ED91FC91E60FF71F47705527B6
:101F100081E090E001C0880F4A95EAF7482F013030
:101F2000110559F0A8F02E0F3F1F02301105E1F006
:101F3000DF91CF911F910F9108952E0F3F1FE21750
:101F4000F307B1F38191DF011197842B8C93F7CFC5
:101F500080952E0F3F1FE217F30751F39191DF0198
:101F6000119798239C93F7CFE217F30709F3819118
:101F7000DF01119784278C93F7CF0F931F93FA01FA
:101F8000DC0156964C9156974230E1F0433091F186
:101F9000413059F514964D915C91DA01AE1BBF0B9F
:101FA000FD01E21BF30B77FD0AC0DC0116964D9193
:101FB0005C91641775071CF4AB01BF0176DF1F91BC
:101FC0000F91089514964D915C91DA01A61BB70B01
:101FD000BD0161507109DC0116964D915C91DA01E9
:101FE000AE1BBF0BFD01E21BF30B77FDE8CFAF018A
:101FF000ADDEE5CF16964D915C91DA01A61BB70BCD
:10200000BD0161507109CFCF0F931F93FA01DC011D
:1020100056964C9156974230A1F0433081F14130B1
:1020200011F514964D915C91DA01AE1BBF0BFD01C9
:102030003197F7FD03C0AB01BF0188DE1F910F91FF
:10204000089514964D915C91DA01A61BB70BBD0162
:10205000DC0116964D915C91DA01AE1BBF0BFD01C0
:102060003197621B730BF7FDE9CFDC0116964D919A
:102070005C91E417F50714F7AF0117DFDFCF169671
:102080004D915C91DA01A61BB70BBD01621B730B6E
:10209000D0CFFC0177FD64C08085918568177907F2
:1020A0000CF05EC057FD5CC08285938548175907C8
:1020B0000CF056C086898230B1F0833029F181302E
:1020C00041F484819581841B950BAB01BC01615067
:1020D00071092130310509F108F443C0223031057E
:1020E00009F463C0089584819581DC01A61BB70BB8
:1020F000BD016150710986819781DC01A41BB50B7C
:10210000AD0141505109E5CF86819781861B970B20
:10211000BA01AC0141505109DCCFCA0157FD079605
:10212000A3E095958795AA95E1F7A481B5818A9F4B
:1021300090018B9F300D9A9F300D1124620F731FF9
:10214000078CF0A1E02DE60FF71F4770552721E01F
:1021500030E001C0220F4A95EAF78081822B80830C
:102160000895CA0157FD079633E0959587953A95EE
:10217000E1F7A481B5818A9F90018B9F300D9A9FD2
:10218000300D1124620F731F078CF0A1E02DE60FB4
:10219000F71F4770552781E090E001C0880F4A95EE
:1021A000EAF7809590818923DACFCA0157FD079617
:1021B00023E0959587952A95E1F7A481B5818A9FBB
:1021C00090018B9F300D9A9F300D1124620F731F69
:1021D000078CF0A1E02DE60FF71F4770552721E08F
:1021E00030E001C0220F4A95EAF780818227B7CFFD
:1021F00008958CBD9DBD08950895E091860380915A
:102200008503E81730F4F0E0E05AFC4F808190E05D
:1022100008958FEF9FEF0895909186038091850335
:102220002FEF3FEF981748F4E92FF0E0E05AFC4F0A
:10223000208130E09F5F90938603C90108958091CB
:10224000850390918603891B990B089590E080E0A7
:1022500008952091F102260F3327331F21323105D3
:10226000ECF420913A03FC0190E080E0243069F026
:1022700082E00895A091F1022191AC014F525D4F8F
:10228000A40FB52FB11D2C930196861798F380915A
:10229000F102680F6093F10280E0089581E00895F3
:1022A000CF92DF92EF92FF920F931F93CF93DF9322
:1022B0007C01CB018A012091B503222389F0EB0137
:1022C0006B01C40ED51ECC15DD0561F06991D701F7
:1022D000ED91FC910190F081E02DC7011995F3CFAC
:1022E000642FB7DFC801DF91CF911F910F91FF904D
:1022F000EF90DF90CF900895CF93DF931F92CDB7EB
:10230000DEB769832091B5032223F9F02091B2034F
:10231000203258F021E030E0FC013383228390E04A
:1023200080E00F90DF91CF9108958091B303E82F63
:10233000F0E0E05CFC4F998190838F5F8093B30362
:102340008093B20381E090E0ECCF61E0CE01019692
:1023500080DFF8CF10923A0381E080933903109226
:10236000140361E084E10E94190661E085E10E94A6
:102370001906E9EBF0E080818E7F808380818D7F7C
:10238000808388E48093B80085E48093BC0008953E
:10239000CF93DF9391E09093D0028823B1F0C09166
:1023A000B800D091BA008091BC008A7B8093BC00B9
:1023B00060E084E10E94190660E085E10E94190650
:1023C000C9DFD093BA00C093B800DF91CF910895D0
:1023D000CF92DF92EF92FF920F931F93CF93DF93F1
:1023E000D091B20381E0D13208F09BC0C091B40318
:1023F0000E94D6066B017C0180913A0381116CC06A
:1024000082E080933A0381E0809339038FEF8093D9
:10241000380310923703D0933603A0E4B3E0E6E12B
:10242000F3E080E0D8138CC010921503809115035F
:10243000CC0FC82BC093150380911403813009F091
:1024400083C0109214030E94D6066B017C01809118
:1024500015038093BB0080913C0390913D03A091B4
:102460003E03B0913F03892B8A2B8B2BA1F00E9456
:10247000D60600913C0310913D0320913E0330911C
:102480003F036C197D098E099F0906171707280756
:10249000390708F442C08091BC0083FDD8CF85EC99
:1024A0008093BC000E94D6066B017C0180913A03A8
:1024B000823009F44BC0809138038F3F09F468C023
:1024C00080913803803209F465C0809138038033ED
:1024D00009F462C084E025C080913C0390913D03E3
:1024E000A0913E03B0913F03892B8A2B8B2B09F4DB
:1024F00083CF0E94D60600913C0310913D032091AA
:102500003E0330913F036C197D098E099F09061720
:1025100017072807390708F06FCF80913B0338DF92
:1025200085E01092B3031092B2031092B503DF91CD
:10253000CF911F910F91FF90EF90DF90CF90089572
:102540009D9191938F5F6ECF85EEAACF80913C03D2
:1025500090913D03A0913E03B0913F03892B8A2BBC
:102560008B2B09F4A3CF0E94D60600913C03109157
:102570003D0320913E0330913F036C197D098E0984
:102580009F09061717072807390708F08FCFC5CF0F
:1025900080E0C7CF82E0C5CF83E0C3CFEF92FF9248
:1025A0000F931F93CF93DF937C01C62F809121055A
:1025B00090912205009709F457C02091250531E03C
:1025C0003093B5032093B4031092B3031092B20377
:1025D000DC01ED91FC910190F081E02D60E0199516
:1025E0008701EE24E394F12CD1E0C15080912105C4
:1025F00090912205CF3F89F1B0E2EB16F104D0F0C3
:10260000E7DE809121059091220520912505D09348
:10261000B5032093B4031092B3031092B203DC010C
:10262000ED91FC910190F081E02D60E01995EE2490
:10263000E394F12C8091210590912205F801649199
:10264000DC01ED91FC910190F081E02D1995BFEF37
:10265000EB1AFB0A0F5F1F4FC8CFDF91CF911F917D
:102660000F91FF90EF90B4CEE0913105F0913205DB
:10267000908180913705809589238083F701C1502F
:1026800008F43AC0449180911F0590912005892B50
:1026900041F04EBD00000DB407FEFDCF8EB5319662
:1026A000EECF28E030E090E8A0912D05B0912E0506
:1026B00080913505542F5923D9F05C91852B8C934B
:1026C000A0912F05B09130058C9150913605852B46
:1026D0008C93A0912F05B09130055C9180913605C7
:1026E000809585238C93969521503109E9F6D7CFB3
:1026F0005C9180958523E3CFDF91CF911F910F915E
:10270000FF90EF9008951F93CF93DF93EC018D8D91
:102710009E8D009719F1162F29A131E03093B50352
:102720002093B4031092B3031092B203DC01ED9135
:10273000FC910190F081E02D60E019958D8D9E8DCA
:10274000DC01ED91FC910190F081E02D612F199554
:102750008D8D9E8DDF91CF911F913ACEADA5BEA5F7
:102760009C918BA9809589238C938B8D9C8D892B33
:1027700051F06EBD00000DB407FEFDCF8EB5DF91A8
:10278000CF911F91089528E030E090E8A9A5BAA55F
:1027900089A9462F4923A9F04C91842B8C93ABA592
:1027A000BCA58C914AA9842B8C93ABA5BCA54C915C
:1027B0008AA9809584238C9396952150310931F70D
:1027C000DECF4C9180958423E9CF1F93CF93DF9385
:1027D000EC01162F8D8D9E8D892BA9F12DA93EA977
:1027E0004FA958AD60E074E284EF90E00E94A62506
:1027F000205131094109510956954795379527953B
:102800002093B80066EA111167EACE017CDF8D8D56
:102810009E8D892B39F129AD3AAD4BAD5CAD60E0B1
:1028200074E284EF90E00E94A6252051310941090D
:10283000510956954795379527952093B800DF9114
:10284000CF911F9108958B8D9C8D892B19F08EADA2
:102850009FADCFDCEFA5F8A990818CA98095892345
:102860008083D0CFEFA5F8A980819CA9892B808394
:10287000E6CFDC0112966D917C911397615071093E
:10288000ED91FC910680F781E02D1994DC01ED912A
:10289000FC910680F781E02D70E060E01994FC0166
:1028A00001900020E9F73197AF01481B590BBC019B
:1028B00086EB93E00C947D07CF93DF930E94AA07E9
:1028C000EC018BE692E0EBDF8C0F9D1FDF91CF9147
:1028D0000895CF93DF93E3DFEC018BE692E0DFDF37
:1028E0008C0F9D1FDF91CF9108950E94E0270F93D9
:1028F0001F93CF93DF93EC0188819981009759F062
:102900002A813B812617370730F081E0DF91CF9194
:102910001F910F9108958B016F5F7F4F0E940427D5
:10292000009759F0998388831B830A832C813D810A
:10293000232B59F7FC011082E8CF80E0E7CFCF933B
:10294000DF93EC0188819981009711F00E947B262A
:10295000198218821D821C821B821A82DF91CF91FC
:102960000895EF92FF920F931F93CF93DF93EC01A3
:10297000FB01E080F180E114F10409F1048115818B
:1029800001151105A1F08C819D81080F191FB80157
:10299000CE01ADDF882399F0288139818C819D811A
:1029A000B701820F931F0E94F4271D830C83CE0171
:1029B000DF91CF911F910F91FF90EF900895CE017D
:1029C000BEDFF5CFEF92FF920F931F93CF93DF936C
:1029D000EC017B018A01BA018ADF81110AC0CE01B4
:1029E000AEDFCE01DF91CF911F910F91FF90EF905D
:1029F00008951D830C83B701888199810E94F42773
:102A0000F0CFEF92FF920F931F93CF93DF93CDB749
:102A1000DEB762970FB6F894DEBF0FBECDBF8C0154
:102A2000CB01F80111821082138212821582148266
:102A30004AE09E012F5F3F4F7901B9010E9447256F
:102A4000F70101900020E9F73197AF014E195F09B6
:102A5000B701C801B7DF62960FB6F894DEBF0FBEAC
:102A6000CDBFDF91CF911F910F91FF90EF9008950F
:102A7000CF93DF93EC01FB018617970741F060814C
:102A800071816115710539F0448155819BDFCE015B
:102A9000DF91CF91089553DFFACFFC0111821082AC
:102AA0001382128215821482FB0101900020E9F743
:102AB0003197AF01461B570B85CFFC018081918177
:102AC000009711F00C947B260895CF92DF92EF923D
:102AD000FF920F931F93CF93DF9300D000D0CDB719
:102AE000DEB77C016EE672E0CE010196D6DFB7015B
:102AF0006C5F7F4FCE01019634DF8C01FC01C480F6
:102B0000D580F9E0CF0ED11CB601F1DE882339F172
:102B1000F801208131818481958166E772E0820F1E
:102B2000931F0E94F427F801D582C482C801C4DE35
:102B3000CE010196C2DF81E0F70186AB8687138E56
:102B400026960FB6F894DEBF0FBECDBFDF91CF91B2
:102B50001F910F91FF90EF90DF90CF900895C801E3
:102B6000EEDEE4CF0F931F93CF93DF93EC0177FD5D
:102B700041C08A819B8168177907E4F50D811E8128
:102B80006115710579F030E020E0AB014150510949
:102B9000241735073CF4D80112960D911C912F5F34
:102BA0003F4FF6CF01976817790711F418870F8305
:102BB000D8011296ED91FC911397672B01F5FE83D6
:102BC000ED838C81811105C0F801808191810E9483
:102BD0007B260115110519F0C8010E947B268A8108
:102BE0009B8101979B838A83892B21F41E821D82FE
:102BF00018861F82DF91CF911F910F9108958281D6
:102C0000938113969C938E9312978F01DACFCF9274
:102C1000DF92EF92FF920F931F93CF93DF93FC010C
:102C200022813381121613062CF5EC0105811681E1
:102C3000F12CE12C8A819B81E816F906ACF4F801AD
:102C4000C280D3808C81811104C0808191810E94D7
:102C50007B260115110519F0C8010E947B26FFEFA4
:102C6000EF1AFF0A8601E6CF1B821A821E821D829E
:102C700018861F82DF91CF911F910F91FF90EF90E7
:102C8000DF90CF90089585ED8093BC0080913C0348
:102C900090913D03A0913E03B0913F030796A11D83
:102CA000B11D23E0B695A795979587952A95D1F7FD
:102CB0002091BC0024FD03C010923A030895409176
:102CC0003C0350913D0360913E0370913F03452BBF
:102CD000462B472B69F30097A105B10541F02AE285
:102CE0002A95F1F700C00197A109B109E1CF8091C0
:102CF0003B034ECBCF92DF92EF92FF920F931F9345
:102D0000CF93DF93FC01228133816217730729F08F
:102D100077FD20C062177307ECF47A018B01EC0198
:102D20008C81882301F184E090E00E94DF25FC0182
:102D3000F182E082138212828A819B810115110542
:102D400051F5009719F5F887EF83FE83ED8301961F
:102D50009B838A83DF91CF911F910F91FF90EF901A
:102D6000DF90CF90089582E090E00E94DF256C0113
:102D7000F70180819181F6019183808384E090E066
:102D80000E94DF25FC01D182C082D4CF2D813E81FB
:102D900033832283DACF8017910749F4AF81B88556
:102DA0001396FC93EE931297F887EF83D0CFAD8103
:102DB000BE8130E020E00150110912965C9112971B
:102DC00013964C911397201731072CF42F5F3F4F28
:102DD000A52FB42FF2CF528343831396FC93EE9327
:102DE0001297B5CFCF93DF93FC0177FD25C0828189
:102DF00093816817790704F5A581B68190E080E09A
:102E00008617970731F012960D90BC91A02D019670
:102E1000F7CFCD91DC91848181110AC082E090E0EE
:102E20000E94DF2528813981FC0131832083EC0158
:102E3000CE01DF91CF910895D0E0C0E0F9CF0F939C
:102E40001F93CF93DF93EC01CDDFFC010081118153
:102E50002C81211102C00E947B26C801DF91CF91F5
:102E60001F910F910895CF92DF92EF92FF920F93EF
:102E70001F93CF93DF93CDB7DEB72C970FB6F8949F
:102E8000DEBF0FBECDBF7C016B0110E000E0F7019B
:102E9000828193818017910754F1B801C701CFDF78
:102EA000FC0116AA1686138E0C151D05E9F4B8014F
:102EB000C701C5DF0ADEF70112870187B801CE011D
:102EC00007969FDD60E872E0CE010196E6DDBE0167
:102ED000695F7F4FCE01019644DDEEDCCE010196A5
:102EE000ECDDCE010796E9DD0F5F1F4FD0CF2C96AA
:102EF0000FB6F894DEBF0FBECDBFDF91CF911F910B
:102F00000F91FF90EF90DF90CF900895FC016185C5
:102F10007285228133816217730719F06F5F7F4FCB
:102F2000A2CF70E060E0FCCF0F931F93CF93DF93AD
:102F30008C01D0E0C0E0F801828193818C179D075D
:102F400064F0BE01C8017BDFFC0185A981110BC0C3
:102F500096A9911103C02196EECF81E0DF91CF9128
:102F60001F910F91089580E0F9CF1F920F920FB635
:102F70000F9211242F933F938F939F93AF93BF93FF
:102F80008091AA039091AB03A091AC03B091AD03E3
:102F90003091A90323E0230F2D3758F50196A11D89
:102FA000B11D2093A9038093AA039093AB03A09330
:102FB000AC03B093AD038091AE039091AF03A091A9
:102FC000B003B091B1030196A11DB11D8093AE0372
:102FD0009093AF03A093B003B093B103BF91AF91AF
:102FE0009F918F913F912F910F900FBE0F901F9047
:102FF000189526E8230F0296A11DB11DD2CF1F926E
:103000000F920FB60F9211240BB60F922F933F938E
:103010004F935F936F937F938F939F93AF93BF93E0
:10302000EF93FF9380919B0390919C03A0919D034C
:10303000B0919E03892B8A2B8B2BE1F190918A030F
:10304000E0918B03F0918C038081892780838091AC
:103050009B0390919C03A0919D03B0919E03181631
:1030600019061A061B069CF480919B0390919C0301
:10307000A0919D03B0919E030197A109B10980938E
:103080009B0390939C03A0939D03B0939E03FF9199
:10309000EF91BF91AF919F918F917F916F915F91D0
:1030A0004F913F912F910F900BBE0F900FBE0F903D
:1030B0001F901895809100020E943907E8CF1F9257
:1030C0000F920FB60F9211240BB60F922F933F93CE
:1030D0004F935F936F937F938F939F93AF93BF9320
:1030E000EF93FF9386EB93E00E94F807FF91EF9137
:1030F000BF91AF919F918F917F916F915F914F9110
:103100003F912F910F900BBE0F900FBE0F901F900D
:1031100018951F920F920FB60F9211240BB60F92B3
:103120002F938F939F93EF93FF93E091C603F091BA
:10313000C7038081E091CC03F091CD0382FD1DC0D7
:1031400090818091CF038F5F8F732091D00382177E
:1031500041F0E091CF03F0E0EA54FC4F958F80936B
:10316000CF03FF91EF919F918F912F910F900BBE05
:103170000F900FBE0F901F9018958081F2CF1F9275
:103180000F920FB60F9211240BB60F922F933F930D
:103190004F935F936F937F938F939F93AF93BF935F
:1031A000EF93FF938091B900887F803609F44CC07B
:1031B00008F03FC0883209F4A8C028F5803109F42E
:1031C0009CC0C8F4882309F4FAC0883009F495C07B
:1031D000FF91EF91BF91AF919F918F917F916F91EF
:1031E0005F914F913F912F910F900BBE0F900FBEAB
:1031F0000F901F901895883109F487C0803241F7ED
:103200008093380314C0803409F49CC040F48033A8
:10321000B9F38833E9F68093380385ECAFC0803585
:1032200009F484C0883509F495C0883489F62BDD0B
:10323000CFCF883909F48CC038F5883729F050F49D
:10324000883611F0803721F683E080933A0310929C
:10325000130357C0883809F47BC0803919F08038CF
:1032600009F0B6CF80911303803208F071C0E0916D
:10327000130381E08E0F809313038091BB00F0E075
:10328000ED50FD4F80833DC0803B39F0E0F4803A43
:1032900009F479C0883A09F09BCF84E080933A031F
:1032A0001092F2021092F102E0918303F0918403F4
:1032B00019958091F10281110FC081E08093F10294
:1032C0001092D10209C0803C09F4A7CF883C09F4D0
:1032D000A4CF883B09F07CCFE091F20281E08E0F11
:1032E0008093F202F0E0EF52FD4F80818093BB00AB
:1032F0009091F2028091F10229C080911503809390
:10330000BB0085EC8093BC0063CF90913703809124
:103310003603981758F5E091370381E08E0F8093BC
:103320003703F0E0EA5EFC4F8081E9CFE09137039C
:1033300081E08E0F809337038091BB00F0E0EA5E5E
:10334000FC4F808390913703809136039817C8F221
:1033500085E8D8CFE091370381E08E0F8093370363
:103360008091BB00F0E0EA5EFC4F808380913903DE
:1033700081115DCF81E08093140384EA8093BC00C7
:1033800010923A0325CF85EC8093BC0010923A034B
:1033900080911303803230F4E0911303F0E0ED509C
:1033A000FD4F10826091130370E0E0918103F09172
:1033B000820383EF92E019951092130309CF1092C4
:1033C000380335CF2F923F924F925F926F927F9248
:1033D0008F929F92AF92BF92CF92DF92EF92FF9225
:1033E0000F931F93CF93DF93CDB7DEB7C055D109AD
:1033F0000FB6F894DEBF0FBECDBFE6EBF3E013824D
:10340000128288EEC82E83E0D82EE12CF12CC482E3
:10341000D582E682F7828FE092E09183808385EC0B
:1034200090E09587848784EC90E09787868780EC8E
:1034300090E0918B808B81EC90E0938B828B82EC7F
:1034400090E0958B848B86EC90E0978B868B118E29
:10345000128E138E148EA8EFB4E013961C921E9257
:1034600012971496CD92DD92ED92FC92179781E21D
:1034700092E011969C938E93E4E0F5E01382128221
:1034800020E830E03583248380E290E097838683D0
:103490003187208793878287168A15861486178638
:1034A000168681E0858B848B88248A94982C938A55
:1034B000828A918A808A878B108E128E118E83E485
:1034C00092E091838083148E138EB68FA58F10A205
:1034D000178E8FEF84A385A386A387A380A780E898
:1034E0009AE1A6E0B0E085AB96ABA7ABB0AF80EABF
:1034F00096E8A1E0B0E081AF92AFA3AFB4AF80E5B2
:1035000086AF17AEE7EEF4E082E090E0918380832F
:1035100024E6422E512C612C712C4282538264820B
:103520007582468257826086718614861386158658
:1035300016861786108A128661E00E94A506E2EEC2
:10354000F4E033E0232E312C318220821482138266
:10355000128261E083E00E94A50603ED14E084E09E
:1035600090E0D8018D939C9361E00E94A506F8013C
:10357000168288E795E0A0E0B0E087839087A18776
:10358000B2878CE291E0A0E0B0E082839383A483D1
:10359000B58313861486158616866FE872E0CE0111
:1035A0008F5B9F4F7ADA85E0E2EEF4E0DE01A45B08
:1035B000BF4F01900D928A95E1F781E1E7EEF4E0CB
:1035C000DE01529601900D928A95E1F78FE0F801A5
:1035D000DE01D29601900D928A95E1F78BE390E09F
:1035E0000E94DF258C0185E0FE01E45BFF4FDE01D8
:1035F000A95BBF4F01900D928A95E1F781E1FE0131
:103600007296DE01119601900D928A95E1F78FE096
:10361000FE01F296DE01939601900D928A95E1F7F4
:103620005801B4E0AB0EB11C6DE672E0C50135DAAD
:10363000BE016F5B7F4FC5011BDA86E390E0F801A6
:103640009183808347E3A42EB12CB382A2828FE0C2
:10365000FE01B396D801929601900D928A95E1F7FA
:1036600081E1FE013196D801519601900D928A9523
:10367000E1F785E0FE01E95BFF4FD8011C96019060
:103680000D928A95E1F7D801D196CD92DD92ED9217
:10369000FC92D497D5961C92D597D6961C92D69725
:1036A0001B961C921E921A97F80117AA10AE11AE23
:1036B00012AE60E086E30E94A5061093D204009348
:1036C000D104CE018F5B9F4FF8D9E0ECF4E085E0A8
:1036D00090E0918380834282538264827582468225
:1036E000578260867186148613861586168617861D
:1036F000108A128661E00E94A506EBEBF4E03182AD
:10370000208214821382128261E083E00E94A50667
:103710000CEA14E087E090E0D8018D939C9361E07F
:103720000E94A506F801168284EA96E0A0E0B0E0C7
:1037300087839087A187B2878CE291E0A0E0B0E018
:1037400082839383A483B583138614861586168695
:1037500062E972E0CE018F5B9F4F9FD985E0EBEB72
:10376000F4E0DE01A45BBF4F01900D928A95E1F772
:1037700081E1E0ECF4E0DE01529601900D928A9531
:10378000E1F78FE0F801DE01D29601900D928A9563
:10379000E1F76DE672E085E794E07FD9BE016F5BEB
:1037A0007F4F85E794E064D981E794E028E330E037
:1037B000FC0131832083B382A2822FE0FE01F296C6
:1037C000A3E9B4E001900D922A95E1F721E1FE0111
:1037D0007296A2E8B4E001900D922A95E1F725E0F7
:1037E000FE01E45BFF4FADE7B4E001900D922A9536
:1037F000E1F7DC01D196CD92DD92ED92FC92D49767
:10380000D5961C92D597D6961C92D6971B961C924D
:103810001E921A97FC0117AA10AE11AE12AE60E00C
:1038200088E30E94A506CE018F5B9F4F46D9E8E64C
:10383000F4E0138212821482168215821086178297
:1038400083E392E091838083E3E5F4E013821282C4
:103850001482168215821086178291838083928645
:10386000818684E190E09487838788E893E1A0E0F3
:10387000B0E085879687A787B08B118A128A138A52
:10388000148AC05BDF4F0FB6F894DEBF0FBECDBF0A
:10389000DF91CF911F910F91FF90EF90DF90CF902C
:1038A000BF90AF909F908F907F906F905F904F9060
:1038B0003F902F900895CF93DF93CDB7DEB76097F9
:1038C0000FB6F894DEBF0FBECDBF789484B582608A
:1038D00084BD84B5816084BD85B5826085BD85B5B4
:1038E000816085BD80916E00816080936E00109232
:1038F00081008091810082608093810080918100AD
:10390000816080938100809180008160809380003D
:103910008091B10084608093B1008091B00081609B
:103920008093B0008091910082608093910080919B
:1039300091008160809391008091900081608093DC
:1039400090008091A10082608093A1008091A100ED
:1039500081608093A1008091A00081608093A0008D
:1039600080912101826080932101809121018160F9
:1039700080932101809120018160809320018091BA
:103980007A00846080937A0080917A0082608093CC
:103990007A0080917A00816080937A0080917A0029
:1039A000806880937A001092C100E091C603F09184
:1039B000C70382E08083E091C203F091C3031082C9
:1039C000E091C403F091C5038FEC80831092CE0385
:1039D000E091CA03F091CB0386E08083E091C803B5
:1039E000F091C903808180618083E091C803F091E8
:1039F000C903808188608083E091C803F091C90386
:103A0000808180688083E091C803F091C903808140
:103A10008F7D80838091230590912405892B09F463
:103A200040C020910A0530910B05C901079697FD0A
:103A3000079613E0959587951A95E1F7209108056B
:103A400030910905829FA001839F500D929F500DD8
:103A5000112470E060E080912305909124050E947C
:103A6000ED2720910A0530910B0580910805909172
:103A70000905213231050CF049C0B90160527109C4
:103A800077FF02C06F5F7F4F7595679583579109E8
:103A900097FD019600E210E023E730E046E056E0B3
:103AA00048C020910A0530910B05C901079697FD82
:103AB0000796B3E095958795BA95E1F720910805AB
:103AC00030910905AC01429FC001439F900D529F68
:103AD000900D11240E94DF259093240580932305E7
:103AE000892B09F09ECF06EA1AE0F801649166235B
:103AF00041F086EB93E00E941A080F5F1F4F892B5D
:103B0000A1F78BE692E00E944F14FFCFB9016054F9
:103B1000710977FF02C06F5F7F4F7595679582557A
:103B2000910997FD019600E410E022E530E046EEB1
:103B300057E0959587950E949A0D82E0809326051F
:103B40008091210590912205892B09F400C28CE314
:103B50008093250510928603109285031092B3037B
:103B60001092B2030E94AA1187E397E09093840316
:103B70008093830388E397E090938203809381038B
:103B800080912C0587FD1EC061E00E94A50661E0C2
:103B900080912C050E94190661E070E080E090E0C1
:103BA0000E94FB0660E080912C050E9419066AE0E5
:103BB00070E080E090E00E94FB0661E080912C05BF
:103BC0000E9419068091210590912205892B09F404
:103BD0007DC22091390530913A0540913B055091C5
:103BE0003C0560E074E284EF90E0B0D720513109E9
:103BF0004109510956954795379527952093B80067
:103C000064E082E096E00E94CE1260910A05615065
:103C100084E095E00E94831364E08EEF95E00E94BB
:103C2000CE128091260560E1813009F064E184E0E4
:103C300095E00E94831364E08AEF95E00E94CE1223
:103C40008FE880934105809108059091090580389F
:103C5000910509F054C280910A0590910B058034BA
:103C6000910509F05CC280912605813009F045C2BA
:103C70008FE98093410512E16AED84E095E00E94AE
:103C80008313612F84E095E00E94831361E884E050
:103C900095E00E9483136091410584E095E00E94C5
:103CA000831369ED84E095E00E94831380912605DB
:103CB00062E2813009F061EF84E095E00E948313B5
:103CC00066E084EF95E00E94CE12809121059091EC
:103CD0002205892B09F427C220913D0530913E052C
:103CE00040913F055091400560E074E284EF90E020
:103CF0002DD72051310941095109569547953795DE
:103D000027952093B80060ED77E080E090E00E9476
:103D1000FB0660916A0470916B0441ED54E088E603
:103D200094E00E947A1685E190E049D7FC0183E394
:103D300092E0918380838FEF9FEF928781878091BC
:103D40006A0490916B049383828380916C048483D2
:103D500080916D0490916E049683858380916F04A9
:103D6000909170049087878384E190E094878387A3
:103D700088E893E1A0E0B0E085879687A787B08BBD
:103D8000118A128A138A148AF093A803E093A70376
:103D900085E992E00E94691444244A94542C32012B
:103DA000E090A703F090A8030E942B074B015C0151
:103DB000C701BAD8882321F089EA92E00E946914E9
:103DC000D7011B968D919C918130910509F0B5C169
:103DD000C701AAD88823E1F0F70182809380092CDB
:103DE000000CAA08BB0860E070E0CB0118141904AD
:103DF0001A041B0424F4F6D5A50194017BD6D7013F
:103E000019962D913C912617370731F3C7012BD80E
:103E1000312C212CD70112968D919C9182159305FE
:103E20000CF411C5B101C7010AD88C010E942B07FF
:103E30004B015C01F80186A9882309F4A0C28085A2
:103E40009185892B09F49BC20480F581E02D808146
:103E5000882309F494C26801F4E0CF0ED11CD80184
:103E6000D5968C91D597882309F4CDC1D7968D919D
:103E70009D910D90BC91A02D881A990AAA0ABB0A9F
:103E8000F80181A992A9A3A9B4A988169906AA063E
:103E9000BB0648F182EB92E00E944F141A8219820D
:103EA0001C821B821E821D82B601CE0101960E94D9
:103EB0003815CE0101960E94AA07CE0101960E94F4
:103EC0005D158BEB92E00E946914D8015B961C9201
:103ED0005B97D5961C92D597D6961C92F80117AA97
:103EE00010AE11AE12AE0E942B07D8015B962C913A
:103EF0005B97222321F15C962D913C915D972130B7
:103F0000310509F0E7C15E968D909D90AD90BC9013
:103F100091979B01AC01281939094A095B0953960D
:103F20008D909D90AD90BC905697281539054A0507
:103F30005B0508F4F9C15D961C921E925C97F8012E
:103F4000668F778F80A391A360E08189EBC161E0E8
:103F500080912A050E94A50661E080912B050E94B0
:103F6000A50680912A05082E000C990BFC01EB5048
:103F7000F54FE491F0E0EE0FFF1FE552F54F25916C
:103F800034913093320520933105FC01E55CF44F08
:103F9000E491E093370580912B05082E000C990BD6
:103FA000FC01EB50F54FE491F0E0EE0FFF1FE552FE
:103FB000F54FA591B491B0933405A0933305FC015E
:103FC000E55CF44FE491E09338058C91E82BEC9399
:103FD00080911F0590912005892B09F434C01FB7EB
:103FE000F89480918003811127C0EAE2FBE084917C
:103FF000E0E7FBE09491E82FF0E0EE0FFF1FEF53B6
:10400000F54FA591B491EC91E92321F461E085E3AA
:104010000E94190661E085E30E94A5068CB58061C7
:104020008CBD8CB580648CBD61E084E30E94A506E4
:1040300061E083E30E94A506809180038F5F8093F7
:1040400080031FBF9DCD61E0809128050E94A506D9
:1040500061E0809129050E94A50680912805082E1F
:10406000000C990BFC01EB50F54FE491F0E0EE0FE2
:10407000FF1FE552F54F2591349130932E05209383
:104080002D05FC01E55CF44FE491E093350580914A
:104090002905082E000C990BFC01EB50F54FE4911B
:1040A000F0E0EE0FFF1FE552F54FA591B491B093EC
:1040B0003005A0932F05FC01E55CF44FE491E093FB
:1040C00036058C91E095E823EC935ACD80911F053D
:1040D00090912005892B31F0809142059091430504
:1040E0000E94F910E0913305F091340590818091A0
:1040F000380580958923808383CD8FECBACD8036B7
:10410000910569F480910A0590910B05409739F467
:1041100080912605813029F480E18093410512E0E9
:10412000ABCD8FEAFACFE0913305F0913405808171
:1041300090913805892B8083E6CD8330910551F429
:10414000C7010E949417882309F462CEC7010E9418
:1041500086175ECE8230910501F5F701818992893B
:10416000A389B489B501A401481B590B6A0B7B0BC9
:1041700085859685A785B089481759076A077B0703
:1041800008F446CEC7010E948617D70151968D923A
:104190009D92AD92BC9254973BCE0497F1F2C70129
:1041A0000E949417882309F433CE10E000E0F70151
:1041B00082819381801791070CF42ACEB801CE0139
:1041C00001960E94011560E872E0CE0107960E94F8
:1041D0004D15BE016F5F7F4FCE0107960E94B1144F
:1041E0000E945C14CE0107960E945D15CE010196D7
:1041F0000E945D15B801C7010E941F170E94651536
:104200000F5F1F4FD4CF8C91863308F086532091D7
:104210007B00982F9870277F922B90937B0087705C
:10422000806480937C0080917A00806480937A001F
:1042300080917A0086FDFCCF809178009091790082
:1042400044970CF050CEF8018285938501969387B0
:104250008287168621E0238F20A70E942B07D80192
:104260009D966D937D938D939C93D097E1E0D59629
:10427000EC9382EB92E00E944F141A8219821C8206
:104280001B821E821D82B601CE0101960E94381546
:10429000CE0101960E94AA07CE0101960E945D15EB
:1042A00088EC92E00E944F14D8011A966D917C918F
:1042B000CE0101960E940115CE0101960E945C1468
:1042C000CE0101960E945D15F80187AA90AEA1AEBD
:1042D000B2AE09CE232B41F55E968D909D90AD90A8
:1042E000BC9091979B01AC01281939094A095B09D7
:1042F00057968D909D90AD90BC905A972815390592
:104300004A055B0588F0E1E0F0E05D96FC93EE93F2
:104310005C975E966D937D938D939C93919761E0EE
:1043200051968C910E9419060E942B07D8019896ED
:104330002C919897222319F192960D90BC91A02D63
:10434000F80185A496A4A7A4B0A8AB01BC014819A4
:1043500059096A097B0984A095A0A6A0B7A04815B1
:1043600059056A057B0578F08A2F0E943907D80124
:1043700098961C92F80115A616A617A610AA2FEF5C
:10438000221A320A47CD81A492A4A3A4B4A42091F6
:1043900000022A136BC0E0ECFAE0149117FDEFCF96
:1043A00061E08A2F0E94A506112319F0123009F04E
:1043B000A6C1AA24BB2460E072E18AE790E0A501CF
:1043C000940198D32D873E874F87588BBA01A90156
:1043D00041505109610971094F3F5105610571054E
:1043E00009F00CF474C160E472E48FE090E0A50180
:1043F000940180D3BA01A9014150510961097109A1
:10440000123009F022C182E04F3F5105610571056C
:1044100009F00CF462C260E970ED83E090E0A50160
:10442000940168D3BA01A901415051096109710988
:1044300083E04F3F51056105710509F00CF44DC251
:1044400068E478EE81E090E0A501940153D3BA01CD
:10445000A90141505109610971094F3F5105610599
:10446000710511F00CF010C184E037C22F3F09F044
:1044700086CFA0930002E0ECFAE01491212F1F3FB9
:1044800009F47DCF123009F475C060F41123A1F155
:10449000113009F44DC027FD72CF61E08A2F0E94D0
:1044A000A50684CF143009F4AEC008F489C01530D5
:1044B00091F7109220011092210120912101286092
:1044C00020932101209121012160209321019D0150
:1044D0003327F901EB50F54FE491F0E0EE0FFF1FA9
:1044E000E552F54F45915491F901E55CF44FE491A3
:1044F000E093870315E054CF14BC15BC24B52260AB
:1045000024BD25B5216025BD9D013327F901EB5060
:10451000F54FE491F0E0EE0FFF1FE552F54F4591A6
:104520005491F901E55CF44FE491E0938E0338CFA8
:1045300010928000109281002091810028602093C9
:104540008100209181002160209381009D0133270B
:10455000F901EB50F54FE491F0E0EE0FFF1FE5524B
:10456000F54F45915491F901E55CF44FE491E093E6
:104570008D0316CF1092B0001092B1002091B000C0
:1045800022602093B0002091B10021602093B100FF
:104590009D013327F901EB50F54FE491F0E0EE0F68
:1045A000FF1FE552F54F4591549150938C03409372
:1045B0008B03F901E55CF44FE491E0938A03F0CEBC
:1045C0001092900010929100209191002860209309
:1045D0009100209191002160209391009D0133274B
:1045E000F901EB50F54FE491F0E0EE0FFF1FE552BB
:1045F000F54F45915491F901E55CF44FE491E09356
:10460000890313E0CDCE1092A0001092A10020915A
:10461000A10028602093A1002091A1002160209397
:10462000A1009D013327F901EB50F54FE491F0E033
:10463000EE0FFF1FE552F54F45915491F901E55CEE
:10464000F44FE491E0938803ABCE4F3F51056105F1
:10465000710509F00CF451C068E478EE81E090E057
:10466000A501940147D2BA01A9014150510961093C
:104670007109112309F403C14F3F5105610571050B
:1046800011F00CF004C1F0CE64E274EF80E090E031
:10469000A50194012FD2BA01A90141505109610924
:1046A000710985E04F3F51056105710509F008F476
:1046B00014C162E17AE780E090E0A50194011AD28A
:1046C000BA01A9014150510961097109EFC081E0A6
:1046D000111103C195B5987F892B85BD47BD4092C7
:1046E000A3035092A4036092A5037092A603809145
:1046F0006E00826080936E0042CE82E0E9CFAA24F1
:10470000BB2460E072E18AE790E0A5019401F2D158
:10471000BA01A901415051096109710991E041159E
:104720005105F1E06F07710574F068E478EE81E0FF
:1047300090E0A5019401DED1BA01A90141505109CF
:104740006109710993E01130C1F480918100887F83
:10475000892B809381005093890040938800409278
:104760009F035092A0036092A1037092A2038091D4
:104770006F00826080936F0002CE1330C1F480918D
:104780009100887F892B80939100509399004093EA
:104790009800409297035092980360929903709208
:1047A0009A0380917100826080937100E8CD14308B
:1047B000C1F48091A100887F892B8093A100509340
:1047C000A9004093A80040929303509294036092F2
:1047D00095037092960380917200826080937200BC
:1047E000CECD153009F07FC080912101887F892BC3
:1047F00080932101509329014093280140928F0317
:104800005092900360929103709292038091730092
:10481000826080937300B3CD143089F20CF4B5CF6D
:10482000153041F3ACCD4093B30040929B035092BE
:104830009C0360929D0370929E0380917000826041
:10484000809370009CCD0E948508AACA84E04F3FE7
:1048500051056105710509F008F43CCF4D855E8571
:104860006F8578899AE075956795579547959A95DC
:10487000D1F7415051096109710985E02BCF83E0DF
:104880004F3F51056105710509F00CF423CF62E13A
:104890007AE780E090E0A50194012CD1BA01A9014A
:1048A0004150510961097109112381F286E04F3F9E
:1048B00051056105710589F080F04D855E856F8534
:1048C00078898AE075956795579547958A95D1F7C8
:1048D000415051096109710987E09091B100987FB9
:1048E000892B8093B100123009F49DCF0CF094CF46
:1048F000112309F4F3CE113009F041CD2CCFCF9321
:10490000DF93C3E3D2E0D0935404C093530483E510
:1049100094E00E940716D0936904C093680488E667
:1049200094E00E94071685E794E00E945D1583E4F9
:1049300092E0909305058093040580912305909162
:104940002405009719F0DF91CF91D5C1DF91CF9168
:1049500008958F929F92AF92BF92CF92DF92EF9283
:10496000FF92CF93DF93EC01688179818A819B81EB
:10497000611571058105910521F464E279ED8BE5FE
:1049800097E02DE133EF41E050E0B4D049015A0106
:104990009B01AC01A7EAB1E4C9D06B017C01ACEE8C
:1049A000B4EFA5019401CED0C60ED71EE81EF91EA5
:1049B000F7FE06C081E0C81AD108E10880E8F80ACD
:1049C000C882D982EA82FB82C701B6019F77DF9154
:1049D000CF91FF90EF90DF90CF90BF90AF909F90DE
:1049E0008F9008958F929F92AF92BF92CF92DF9255
:1049F000EF92FF9260910102709102028091030296
:104A000090910402611571058105910521F464E21C
:104A100079ED8BE597E02DE133EF41E050E06AD08E
:104A200049015A019B01AC01A7EAB1E47FD06B01B7
:104A30007C01ACEEB4EFA501940184D0C60ED71E64
:104A4000E81EF91EF7FE06C081E0C81AD108E10889
:104A500080E8F80AC0920102D0920202E0920302BA
:104A6000F0920402C701B6019F77FF90EF90DF90AC
:104A7000CF90BF90AF909F908F9008956093010268
:104A80007093020280930302909304020895BB275F
:104A90004A3031F4992322F4BDE2909581959F4FDD
:104AA00001C0BB27FB015527AA27880F991FAA1F02
:104AB000A41710F0A41B83955051B9F7A05DAA3339
:104AC00008F0A95DA193009779F7B111B193119204
:104AD000CB0100C0DC01FC01672F71917723E1F766
:104AE000329704C07C916D9370836291AE17BF07BB
:104AF000C8F30895052E97FB16F400940FD057FDC8
:104B000005D024D007FC02D046F408C0509540954B
:104B1000309521953F4F4F4F5F4F08959095809569
:104B2000709561957F4F8F4F9F4F089531D0A59F0E
:104B3000900DB49F900DA49F800D911D1124089598
:104B4000B7FFF4CFF3DF821B930B0895A1E21A2E77
:104B5000AA1BBB1BFD010DC0AA1FBB1FEE1FFF1F21
:104B6000A217B307E407F50720F0A21BB30BE40B71
:104B7000F50B661F771F881F991F1A9469F76095B8
:104B80007095809590959B01AC01BD01CF01089572
:104B9000A29FB001B39FC001A39F700D811D11247E
:104BA000911DB29F700D811D1124911D0895EE0F6E
:104BB000FF1F881F8BBF0790F691E02D19940F936C
:104BC0001F93CF93DF938230910510F482E090E041
:104BD000E0914605F091470530E020E0B0E0A0E02C
:104BE000309799F42115310509F44AC0281B390B77
:104BF00024303105D8F58A819B816115710589F1D1
:104C0000FB0193838283FE0111C0408151810281A7
:104C1000138148175907E0F04817590799F410977E
:104C200061F012960C93129713961C933296CF0153
:104C3000DF91CF911F910F91089500934605109336
:104C40004705F4CF2115310551F04217530738F0CD
:104C5000A901DB019A01BD01DF01F801C1CFEF011C
:104C6000F9CF9093470580934605CDCFFE01E20F23
:104C7000F31F819391932250310939832883D7CF31
:104C80002091440530914505232B41F420910702E2
:104C90003091080230934505209344052091050288
:104CA000309106022115310541F42DB73EB74091F0
:104CB000090250910A02241B350BE0914405F09142
:104CC0004505E217F307A0F42E1B3F0B2817390701
:104CD00078F0AC014E5F5F4F2417350748F04E0F58
:104CE0005F1F5093450540934405819391939FCF57
:104CF000F0E0E0E09CCFCF93DF930097E9F0FC0178
:104D0000329713821282A0914605B0914705ED01BA
:104D100030E020E01097A1F420813181820F931FB1
:104D200020914405309145052817390709F061C0E5
:104D3000F0934505E0934405DF91CF910895EA0192
:104D4000CE17DF07E8F54A815B819E0141155105C9
:104D5000B1F7E901FB83EA8349915991C40FD51F4B
:104D6000EC17FD0761F4808191810296840F951FF5
:104D7000E90199838883828193819B838A83F0E010
:104D8000E0E012968D919C9113970097B9F52D91C3
:104D90003C911197CD010296820F931F20914405FB
:104DA000309145052817390739F6309751F510929B
:104DB000470510924605B0934505A0934405BCCF26
:104DC000D383C28340815181840F951FC817D907AF
:104DD00061F44E5F5F4F88819981480F591F51835D
:104DE00040838A819B81938382832115310509F059
:104DF000B0CFF0934705E09346059ECFFD01DC015F
:104E0000C0CF13821282D7CF4F925F926F927F9260
:104E10008F929F92AF92BF92CF92DF92EF92FF92CA
:104E20000F931F93CF93DF938C01009791F4CB01E5
:104E3000DF91CF911F910F91FF90EF90DF90CF9076
:104E4000BF90AF909F908F907F906F905F904F90AA
:104E5000B6CEFC01E60FF71F9C0122503109E21784
:104E6000F30708F4AAC0D901CD91DC911197C617B8
:104E7000D70718F1C530D10570F0CE010497861719
:104E8000970748F0C61BD70B2297C193D1936D9318
:104E90007C93CF0130DFC801DF91CF911F910F913B
:104EA000FF90EF90DF90CF90BF90AF909F908F904A
:104EB0007F906F905F904F9008955B01AC1ABD0A90
:104EC0004C018C0E9D1EA0914605B0914705512CBA
:104ED000412CF12CE12C109731F5809144059091F3
:104EE00045058815990509F05CC04616570608F077
:104EF00058C08091050290910602009741F48DB749
:104F00009EB74091090250910A02841B950BE81745
:104F1000F90708F052C0F0934505E0934405F90104
:104F200071836083B8CF8D919C91119712966C908C
:104F3000129713967C901397A815B90559F56C0133
:104F400042E0C40ED11CCA14DB0420F1AC014A19A2
:104F50005B09DA011296159780F0628273825183A1
:104F60004083D9016D937C93E114F10471F0D70172
:104F70001396FC93EE9312978ECF22968C0F9D1F63
:104F8000F90191838083F301EFCFF0934705E0931C
:104F9000460581CF4816590608F42C017D01D3013E
:104FA0009ACFCB010CDE7C01009739F0AE01B8013D
:104FB0000BD0C801A0DE87016ECF10E000E06BCF00
:104FC00081E090E0F89417C0FB01DC0102C0019081
:104FD0000D9241505040D8F70895DC0101C06D9307
:104FE00041505040E0F70895FB01DC0101900D9223
:104FF0000020E1F7089515E0C5EED5E000E005C01A
:10500000802FFE01D4DD2196011DC63ED10780E030
:085010000807B1F7F894FFCF87
:10501800FF01000000000048058000000000001AA1
:10502800087D07B2076608E307C107D50700000037
:10503800007C115011261118061F110C11FD1000CB
:10504800000000F2167A160716B215461439140035
:10505800000000F00A7D072611FC1049101806937D
:105068000D6B0D870D7B0DFA0D1806B608E513BDFF
:105078000F0410B40C970C1F0CC00B0D0A005461E0
:105088007267657420002061726D656421212100BA
:1050980041726D6564207461726765743A200074AA
:1050A8003100743200496E697469616C697A6564AB
:1050B800207461726765747300416C6C2069646C5C
:1050C80065005461726765743A2000206465616305
:1050D8007469766174656400204869743A20000038
:00000001FF
